:100000000C9446000C9465000C9465000C946500FB
:100010000C9465000C9465000C9465000C946500CC
:100020000C9465000C9465000C9465000C946500BC
:100030000C945D040C9465000C9465000C946500B0
:100040000C9465000C9465000C9465000C9465009C
:100050000C9465000C9465000C9465000C9465008C
:100060000C9465000C9465000C9465000C9465007C
:100070000C9465000C9465000C94A0030C9465002E
:100080000C9454030C9465000C94650011241FBE5D
:10009000CFEFD0E1DEBFCDBF11E0A0E0B1E0EAEFED
:1000A000FAE100E00BBF02C007900D92A236B10743
:1000B000D9F711E0A2E6B1E001C01D92A53DB1075C
:1000C000E1F70E9467000C947B0D0C9400000E94E5
:1000D000690280E091E00E94460D80E090E0089582
:1000E0001F93182F8A3019F48DE00E9470005D9BD9
:1000F000FECF1CB980E090E01F9108951F93BC01D2
:100100005F9BFECF1CB1812F0E947000812F90E079
:100110001F910895382F843010F081E00895483001
:1001200010F082E00895822F90E002C0880F991F9E
:100130004A95E2F7282F313089F0313028F03230FB
:10014000B9F03330F1F41FC08AB3862B8ABB8BB36E
:10015000262360958623282B2BBB13C087B3862BC1
:1001600087BB88B3262360958623282B28BB09C02C
:1001700084B3862B84BB85B3262360958623282BE6
:1001800025BB80E0089582B1862B82B983B12623F6
:1001900060958623282B23B980E00895F9018430E7
:1001A00010F081E00895483010F082E00895813029
:1001B000B9F0813028F0823019F18330C1F539C0AF
:1001C0008AB3882329F09AB3862F8095892305C0A6
:1001D0008AB3882319F4862F80958ABB89B31FC000
:1001E00087B3882329F097B3862F8095892305C08C
:1001F00087B3882319F4862F809587BB86B30FC0F9
:1002000084B3882329F094B3862F8095892305C071
:1002100084B3882319F4862F809584BB83B3862307
:1002200090E002C0959587954A95E2F7808380E03B
:10023000089582B1882329F092B1862F8095892371
:1002400005C082B1882319F4862F809582B981B1C7
:10025000862390E002C0959587954A95E2F78083C2
:1002600080E00895DF92EF92FF920F931F93CF9358
:10027000DF93082FD62EE72E813210F081E02AC0BE
:100280000E94A30B8B3A29F50E94A30B8B3A09F528
:100290000E94A30B8B3AE9F40E94A30BF82E182FAF
:1002A0008D2D9E2D9C01E90104C00E94A30B899312
:1002B000180F9E012D192017C0F30E94A30BF016F2
:1002C00011F083E007C0811711F480E003C084E0DF
:1002D00001C082E0DF91CF911F910F91FF90EF90CD
:1002E000DF900895AF92BF92CF92DF92EF92FF928C
:1002F0000F931F93CF93DF93182F092FE62EB42E61
:10030000A52E2FEF621711F481E045C00E94A30BC8
:100310008B3A09F03FC00E94A30B8B3AD9F50E949B
:10032000A30B8B3AB9F50E94A30BF82E0E94A30BE6
:10033000C82EA12FB02FFD0101900020E9F73197C1
:10034000DE2ED11A212F302FC901EC010C2D10E027
:1003500005C00E94A30B8993080F1F5F1D15C8F3EA
:100360008B2D9A2D9C01E90104C00E94A30B899357
:10037000080F9E012B192E15C0F30E94A30BFC1829
:10038000FE1411F083E007C0801711F480E003C071
:1003900084E001C082E0DF91CF911F910F91FF9027
:1003A000EF90DF90CF90BF90AF900895AF92BF9243
:1003B000CF92DF92EF92FF920F931F93CF93DF9331
:1003C000D82EC92EE62EB42EA52E8BEB0E949F0BA5
:1003D0008BEB0E949F0B8BEB0E949F0BED2DFC2D56
:1003E000EF0109900020E9F72197CE1BDF0B0C2FBE
:1003F0008C2F90E001968E0D911D8F3F910519F085
:1004000014F081E02CC00F5F102F1E0D0150812FC2
:100410000E949F0B8C2F0E949F0BF12EF00E2D2D12
:100420003C2DC901EC0110E006C088810E949F0BA1
:100430008991F80E1F5F1017C0F38B2D9A2D9C0128
:10044000E90100E006C088810E949F0B8991F80EA7
:100450000F5F0E15C0F38F2D0E949F0B80E0DF9180
:10046000CF911F910F91FF90EF90DF90CF90BF90B1
:10047000AF900895EF92FF920F931F93CF93DF9366
:10048000082F7B01813210F081E01CC08AEA0E94B3
:100490009F0B8AEA0E949F0B8AEA0E949F0B802F83
:1004A0000E949F0B102FE70105C088810E949F0BBF
:1004B0008991180F9E012E192017B8F3812F0E94E1
:1004C0009F0B80E0DF91CF911F910F91FF90EF90F4
:1004D00008951092900091E199B98AB188618AB922
:1004E000E5E9F0E080818660808310929800909327
:1004F0009900EAE9F0E0808188618083EDE9F0E02D
:100500008081866080838CE091E09093D20180931B
:10051000D1019093D0018093CF0187B3806E87BBC8
:1005200080E00E94400B0E94A902789480E0089528
:10053000FC016083089510929D01EAE9F0E080815A
:10054000806880830895EAE9F0E080818F77808376
:1005500008958EB588608EBD8EB582608EBD87B7DA
:10056000806187BF8FE890E09BBD8ABD1DBC1CBC2D
:1005700008958EE18093CC0108950F931F93CF933C
:10058000DF93EC018A01898170E0E82FF0E09B01A4
:100590002E0F3F1F8A8190E08217930764F1AF010D
:1005A0004C5F5F4F4C0F5D1F20E030E00DC0DA0163
:1005B000A20FB31FF801E20FF31F80818C93888193
:1005C0008F5F88832F5F3F4F2617370784F358814B
:1005D0004981242F30E0250F311D8A8190E0450F9D
:1005E0002817390711F481E001C082E08B83498329
:1005F000188280E002C081E08B83DF91CF911F9150
:100600000F9108950F931F93CF93DF93EC01962FD3
:100610008981861710F481E042C08881682F70E0DC
:100620006C5F7F4F6C0F7D1F20E030E0092F10E0E2
:100630000DC0DA01A20FB31FFB01E20FF31F80818F
:100640008C9388818F5F88832F5F3F4F20173107FE
:1006500084F38881082F10E0DB01A00FB11F40E078
:1006600050E008C0FB01E40FF51F8C9180831D92C0
:100670004F5F5F4FE9819A01200F311F8E2F90E06D
:10068000281739077CF398819E1719F41B82198269
:1006900004C082E08B83E91BE983188280E0DF914C
:1006A000CF911F910F9108951F920F920FB60F9245
:1006B0000BB60F9211242F933F934F935F936F9339
:1006C0007F938F939F93AF93BF93EF93FF9380910B
:1006D0001D01882361F08AE191E061E04BEC51E07B
:1006E0000E9402038091CB0180939C0005C0809101
:1006F0009A008F7B80939A00FF91EF91BF91AF9109
:100700009F918F917F916F915F914F913F912F9129
:100710000F900BBE0F900FBE0F901F901895FC010D
:1007200081E083830895FC0113821182108280E0AE
:1007300090E014820196319680329105D1F70895A8
:100740001F920F920FB60F920BB60F9211242F9398
:100750003F934F935F936F937F938F939F93AF9349
:10076000BF93EF93FF9390919C009093A40180918D
:100770009D01823031F1833030F4882359F081308B
:1007800009F088C00CC0833009F44CC0843009F0F3
:1007900081C06CC0903F09F065C081E061C080916C
:1007A0007601981721F482E080939D0107C0109292
:1007B0009D0180919A008F7780939A001092A501F5
:1007C00051C09923B9F480917701823039F483E0E4
:1007D00080939D018091790190E007C0843051F4AD
:1007E00083E080939D0181E090E09093A30180934A
:1007F000A20107C084E080939D011092A301109292
:10080000A2018EE391E061E044EA51E00E94BD0262
:100810008091A4018093A9019091A501980F9093D4
:10082000A50120C08EE391E061E044EA51E00E941E
:10083000BD028091A4019091A501890F8093A5012B
:100840008091A2019091A30101979093A3018093BD
:10085000A2018091A2019091A301892B19F484E057
:1008600080939D018EE18093CC0114C08091A501FD
:10087000981721F481E08093410104C08EE391E058
:100880000E9493038EE18093CC0180919A008F7730
:1008900080939A00FF91EF91BF91AF919F918F91BB
:1008A0007F916F915F914F913F912F910F900BBE70
:1008B0000F900FBE0F901F9018951F920F920FB6BA
:1008C0000F920BB60F9211242F933F934F935F9388
:1008D0006F937F938F939F93AF93BF93EF93FF9308
:1008E00080919E01813079F0813018F0823061F57D
:1008F00025C09091A101913039F58EE18093CC0112
:1009000090939E0121C08091CC0181508093CC01B5
:100910008091CC01882369F480919A008F7780932D
:100920009A008EE391E00E94930382E080939E01FF
:100930000BC080919A0087FD07C004C08091A1017F
:10094000882311F410929E01FF91EF91BF91AF9116
:100950009F918F917F916F915F914F913F912F91D7
:100960000F900BBE0F900FBE0F901F901895EF9237
:10097000FF920F93DF93CF93CDB7DEB728970FB6D3
:10098000F894DEBF0FBECDBF6D834E832F830887E3
:10099000198294E09A830E94400B809161008061EB
:1009A00080936100809162008061809362008A81FF
:1009B0009981890F9E81890F9F81890F9885890F61
:1009C00089838AE191E061E0AE014B5F5F4F0E9455
:1009D000BD028AE191E061E0AE014E5F5F4F0E948F
:1009E000BD028AE191E061E0AE014A5F5F4F0E9483
:1009F000BD028AE191E061E0AE01495F5F4F0E9474
:100A0000BD028AE191E061E0AE01485F5F4F0E9464
:100A1000BD028AE191E061E0AE014F5F5F4F0E944D
:100A2000BD028D81809376018A818093770180EF6A
:100A30000E944E0B80919A00806480939A0080916E
:100A40009A0086FDFCCF809162008F7E80936200C9
:100A500010929D0180919A00806880939A0081E0B5
:100A60008093A10180914101813021F080919E010C
:100A70008230C1F71092A10180914101813011F0C3
:100A800081E019C08EE391E061E0AE014D5F5F4F00
:100A90000E9402038B81882359F48EE391E061E088
:100AA000AE014C5F5F4F0E9402038C81F70180838F
:100AB0008B81880F880F28960FB6F894DEBF0FBE83
:100AC000CDBFCF91DF910F91FF90EF900895EF92FE
:100AD0000F93DF93CF93CDB7DEB728970FB6F89477
:100AE000DEBF0FBECDBF6C834D832E830F83E886A0
:100AF000198293E09A830E94400B8091610080618B
:100B000080936100809162008061809362008A819D
:100B10009981890F9D81890F9E81890F9F81890FFE
:100B20009885890F89838AE191E061E0AE014C5F8D
:100B30005F4F0E94BD028AE191E061E0AE014E5F2D
:100B40005F4F0E94BD028AE191E061E0AE014B5F20
:100B50005F4F0E94BD028AE191E061E0AE014A5F11
:100B60005F4F0E94BD028AE191E061E0AE01495F02
:100B70005F4F0E94BD028AE191E061E0AE01485FF3
:100B80005F4F0E94BD028AE191E061E0AE014F5FDC
:100B90005F4F0E94BD028C81809376018A81809391
:100BA000770180EF0E944E0B80919A0080648093C1
:100BB0009A0080919A0086FDFCCF809162008F7E22
:100BC0008093620010929D0180919A0080688093CA
:100BD0009A0081E08093A10180914101813021F050
:100BE00080919E018230C1F71092A1018091410154
:100BF000813011F081E00BC08EE391E061E0AE0145
:100C00004D5F5F4F0E9402038B81880F880F2896EB
:100C10000FB6F894DEBF0FBECDBFCF91DF910F911D
:100C2000EF900895CF92DF92EF92FF920F931F9370
:100C3000DF93CF93CDB7DEB727970FB6F894DEBF1B
:100C40000FBECDBF6D834E832F836801198292E062
:100C50009A830E94400B80916100806180936100C3
:100C6000809162008061809362008A819981890FFE
:100C70009E81890F9F81890F89838AE191E061E0DC
:100C8000AE014B5F5F4F0E94BD028AE191E061E0DF
:100C9000AE014E5F5F4F0E94BD028AE191E061E0CC
:100CA000AE014A5F5F4F0E94BD028AE191E061E0C0
:100CB000AE01495F5F4F0E94BD028AE191E061E0B1
:100CC000AE014F5F5F4F0E94BD028D818093760120
:100CD0008A81809377018F818093790180EF0E94D0
:100CE0004E0B80919A00806480939A0080919A00C4
:100CF00086FDFCCF809162008F7E8093620010920F
:100D00009D0180919A00806880939A0081E0809391
:100D1000A10180914101813021F080919E018230BA
:100D2000C1F71092A10180914101813011F081E061
:100D300028C08EE391E061E0AE014D5F5F4F0E94FD
:100D400002038B818823D1F400E010E084E0E82ED8
:100D5000F12CEC0EFD1E0DC08EE391E061E0A701C9
:100D60000E940203F601E00FF11F8C8180830F5F68
:100D70001F4F8F8190E00817190774F38B81880F3C
:100D8000880F27960FB6F894DEBF0FBECDBFCF9168
:100D9000DF911F910F91FF90EF90DF90CF9008951A
:100DA0000F931F93DF93CF9300D000D000D0CDB727
:100DB000DEB76C834D832E83198291E09A830E9463
:100DC000400B80916100806180936100809162009E
:100DD0008061809362008A819981890F9D81890F4A
:100DE0009E81890F8983F8019801290F311D04C064
:100DF00089819191890F8983E217F307C9F78AE105
:100E000091E061E0AE014C5F5F4F0E94BD028AE15C
:100E100091E061E0AE014E5F5F4F0E94BD028AE14A
:100E200091E061E0AE014B5F5F4F0E94BD028AE13D
:100E300091E061E0AE014A5F5F4F0E94BD028AE12E
:100E400091E06E81A8010E94BD028AE191E061E01B
:100E5000AE014F5F5F4F0E94BD028C81809376018F
:100E60008A818093770180EF0E944E0B80919A00D7
:100E7000806480939A0080919A0086FDFCCF8091D7
:100E800062008F7E8093620010929D0180919A0093
:100E9000806880939A0081E08093A1018091410154
:100EA000813021F080919E018230C1F71092A10122
:100EB00080914101813011F081E00BC08EE391E01F
:100EC00061E0AE014D5F5F4F0E9402038B81880F8E
:100ED000880F26960FB6F894DEBF0FBECDBFCF9118
:100EE000DF911F910F910895EF920F93DF93CF93AE
:100EF000CDB7DEB728970FB6F894DEBF0FBECDBFD3
:100F00006C834D832E830F83E88619821A820E9498
:100F1000400B80916100806180936100809162004C
:100F20008061809362008A819981890F9D81890FF8
:100F30009E81890F9F81890F9885890F89838AE116
:100F400091E061E0AE014C5F5F4F0E94BD028AE11B
:100F500091E061E0AE014E5F5F4F0E94BD028AE109
:100F600091E061E0AE014B5F5F4F0E94BD028AE1FC
:100F700091E061E0AE014A5F5F4F0E94BD028AE1ED
:100F800091E061E0AE01495F5F4F0E94BD028AE1DE
:100F900091E061E0AE01485F5F4F0E94BD028AE1CF
:100FA00091E061E0AE014F5F5F4F0E94BD028C8116
:100FB000809376018A818093770180EF0E944E0BA7
:100FC00080919A00806480939A0080919A0086FDB7
:100FD000FCCF809162008F7E8093620010929D0111
:100FE00080919A00806880939A0081E08093A101AB
:100FF00080914101813021F080919E018230C1F7C2
:101000001092A10180914101813011F081E00BC06B
:101010008EE391E061E0AE014D5F5F4F0E940203FD
:101020008B81880F880F28960FB6F894DEBF0FBE0D
:10103000CDBFCF91DF910F91EF900895EF92FF9286
:101040000F93DF93CF93CDB7DEB728970FB6F89401
:10105000DEBF0FBECDBF6D834E832F8308871982FD
:1010600094E09A830E94400B8A819981890F9E8126
:10107000890F9F81890F9885890F89838AE191E083
:1010800061E0AE014B5F5F4F0E94BD028AE191E0DB
:1010900061E0AE014E5F5F4F0E94BD028AE191E0C8
:1010A00061E0AE014A5F5F4F0E94BD028AE191E0BC
:1010B00061E0AE01495F5F4F0E94BD028AE191E0AD
:1010C00061E0AE01485F5F4F0E94BD028AE191E09E
:1010D00061E0AE014F5F5F4F0E94BD028D81809342
:1010E00076018A818093770180EF0E944E0B809178
:1010F0009A00806480939A0080919A0086FDFCCFCC
:1011000010929D0180919A00806880939A0081E0FE
:101110008093A10180914101813021F080919E0155
:101120008230C1F71092A10180914101813011F00C
:1011300081E019C08EE391E061E0AE014D5F5F4F49
:101140000E9402038B81882359F48EE391E061E0D1
:10115000AE014C5F5F4F0E9402038C81F7018083D8
:101160008B81880F880F28960FB6F894DEBF0FBECC
:10117000CDBFCF91DF910F91FF90EF900895EF9247
:101180000F93DF93CF93CDB7DEB728970FB6F894C0
:10119000DEBF0FBECDBF6C834D832E830F83E886E9
:1011A000198293E09A830E94400B8A819981890F6A
:1011B0009D81890F9E81890F9F81890F9885890F55
:1011C00089838AE191E061E0AE014C5F5F4F0E944C
:1011D000BD028AE191E061E0AE014E5F5F4F0E9487
:1011E000BD028AE191E061E0AE014B5F5F4F0E947A
:1011F000BD028AE191E061E0AE014A5F5F4F0E946B
:10120000BD028AE191E061E0AE01495F5F4F0E945B
:10121000BD028AE191E061E0AE01485F5F4F0E944C
:10122000BD028AE191E061E0AE014F5F5F4F0E9435
:10123000BD028C81809376018A818093770180EF53
:101240000E944E0B80919A00806480939A00809156
:101250009A0086FDFCCF10929D0180919A008068D3
:1012600080939A0081E08093A101809141018130B7
:1012700021F080919E018230C1F71092A1018091EE
:101280004101813011F081E00BC08EE391E061E01B
:10129000AE014D5F5F4F0E9402038B81880F880F64
:1012A00028960FB6F894DEBF0FBECDBFCF91DF9169
:1012B0000F91EF900895CF92DF92EF92FF920F93EC
:1012C0001F93DF93CF93CDB7DEB727970FB6F89470
:1012D000DEBF0FBECDBF6D834E832F8368011982A1
:1012E00092E09A830E94400B8A819981890F9E81A6
:1012F000890F9F81890F89838AE191E061E0AE01C6
:101300004B5F5F4F0E94BD028AE191E061E0AE0158
:101310004E5F5F4F0E94BD028AE191E061E0AE0145
:101320004A5F5F4F0E94BD028AE191E061E0AE0139
:10133000495F5F4F0E94BD028AE191E061E0AE012A
:101340004F5F5F4F0E94BD028D81809376018A813D
:10135000809377018F818093790180EF0E944E0BFB
:1013600080919A00806480939A0080919A0086FD13
:10137000FCCF10929D0180919A00806880939A0022
:1013800081E08093A10180914101813021F0809121
:101390009E018230C1F71092A101809141018130FC
:1013A00011F081E028C08EE391E061E0AE014D5F75
:1013B0005F4F0E9402038B818823D1F400E010E08C
:1013C00094E0E92EF12CEC0EFD1E0DC08EE391E0B1
:1013D00061E0A7010E940203F601E00FF11F8C817A
:1013E00080830F5F1F4F8F8190E00817190774F3F8
:1013F0008B81880F880F27960FB6F894DEBF0FBE3B
:10140000CDBFCF91DF911F910F91FF90EF90DF90B3
:10141000CF9008950F931F93DF93CF9300D000D008
:1014200000D0CDB7DEB76C834D832E83198291E057
:101430009A830E94400B8A819981890F9D81890F2F
:101440009E81890F8983F8019801290F311D04C0FD
:1014500089819191890F8983E217F307C9F78AE19E
:1014600091E061E0AE014C5F5F4F0E94BD028AE1F6
:1014700091E061E0AE014E5F5F4F0E94BD028AE1E4
:1014800091E061E0AE014B5F5F4F0E94BD028AE1D7
:1014900091E061E0AE014A5F5F4F0E94BD028AE1C8
:1014A00091E06E81A8010E94BD028AE191E061E0B5
:1014B000AE014F5F5F4F0E94BD028C818093760129
:1014C0008A818093770180EF0E944E0B80919A0071
:1014D000806480939A0080919A0086FDFCCF1092E0
:1014E0009D0180919A00806880939A0081E08093AA
:1014F000A10180914101813021F080919E018230D3
:10150000C1F71092A10180914101813011F081E079
:101510000BC08EE391E061E0AE014D5F5F4F0E9432
:1015200002038B81880F880F26960FB6F894DEBFD2
:101530000FBECDBFCF91DF911F910F910895EF9214
:101540000F93DF93CF93CDB7DEB728970FB6F894FC
:10155000DEBF0FBECDBF6C834D832E830F83E88625
:1015600019821A820E94400B8A819981890F9D817C
:10157000890F9E81890F9F81890F9885890F8983A3
:101580008AE191E061E0AE014C5F5F4F0E94BD02D5
:101590008AE191E061E0AE014E5F5F4F0E94BD02C3
:1015A0008AE191E061E0AE014B5F5F4F0E94BD02B6
:1015B0008AE191E061E0AE014A5F5F4F0E94BD02A7
:1015C0008AE191E061E0AE01495F5F4F0E94BD0298
:1015D0008AE191E061E0AE01485F5F4F0E94BD0289
:1015E0008AE191E061E0AE014F5F5F4F0E94BD0272
:1015F0008C81809376018A818093770180EF0E94AD
:101600004E0B80919A00806480939A0080919A009A
:1016100086FDFCCF10929D0180919A008068809396
:101620009A0081E08093A10180914101813021F0F5
:1016300080919E018230C1F71092A10180914101F9
:10164000813011F081E00BC08EE391E061E0AE01EA
:101650004D5F5F4F0E9402038B81880F880F289691
:101660000FB6F894DEBF0FBECDBFCF91DF910F91C3
:10167000EF90089590E0883008F091E0892F089568
:10168000982F883010F081E0089588B39295990FD3
:10169000907E8F71892B88BB80E00895982F809170
:1016A0009B0085FFFCCF90939C0083EB92E0019719
:1016B000F1F7089580919B0087FFFCCF80919C00FB
:1016C00008958FB9779BFECF8FB108951FB8779B90
:1016D000FECF8FB108951F93162F0E94400B8DE30C
:1016E00093E00197F1F780919B0085FFFCCF109369
:1016F0009C0083EB92E00197F1F780E01F91089541
:10170000CF93DF93EB010E94400B8DE393E00197B1
:10171000F1F720E030E008C02F5F3F4F8FEF2F3F01
:10172000380711F481E008C080919B0087FFF4CF57
:1017300080919C00888380E0DF91CF9108955D9B2C
:10174000FECF8CB908955F9BFECF8CB1089584E9DC
:1017500080937400089584EA8093740080917400EB
:1017600087FFFCCF80917100887F883011F480E082
:10177000089584E98093740081E0089584E980935A
:101780007400089584EA809374008091740087FF48
:10179000FCCF80917100887F803111F480E0089542
:1017A00084E98093740082E0089590E0880F991F87
:1017B0008093730084E8809374008091740087FFA5
:1017C000FCCF80917100887F883119F084E9809383
:1017D00074000895880F8F5F8093730084E880936E
:1017E00074008091740087FFFCCF80917100887F26
:1017F000803419F084E98093740008958093730015
:1018000084E8809374008091740087FFFCCF8091FE
:101810007100887F883219F084E9809374000895FC
:1018200084EC809374008091740087FFFCCF8091DA
:101830007100887F803519F084E98093740080916D
:101840007300089584E8809374008091740087FF8A
:10185000FCCF80917100887F883519F084E98093EE
:1018600074000895FF920F931F93182F062FF42EE4
:101870000E94AB0B812F0E94D50B802F0E94FE0B84
:101880008F2D0E94FE0B84E9809374001F910F91AD
:10189000FF9008950F931F93082F162F0E94AB0BF4
:1018A000802F0E94D50B812F0E94FE0B0E94C20B3D
:1018B000802F0E94EA0B0E94100C182F0E94220C0D
:1018C00084E980937400812F1F910F910895809374
:1018D00070000895EF92FF920F931F93182F062F19
:1018E000F72EE42E0E94AB0B813009F441C0812F0A
:1018F00090E0880F991F90708093730084E8809324
:1019000074008091740087FFFCCF80917100887F04
:10191000883139F4802F9F2D9C01F90190E024E853
:101920001AC084E98093740083E022C08081809390
:101930007300209374008091740087FFFCCF809126
:1019400071003196887F883229F084E98093740091
:1019500084E00EC09F5F9E1548F381E08E1520F451
:1019600084E98093740003C081E08093CD0180E01E
:101970001F910F91FF90EF9008950F931F93CF93B6
:10198000DF93082FEB01142F8091CD01813041F4BA
:101990000E94C20B823009F474C01092CD0102C0C3
:1019A0000E94AB0B813009F46CC0802F90E0880F4F
:1019B000991F81608093730084E880937400809104
:1019C000740087FFFCCF80917100887F803429F0FC
:1019D00084E98093740085E054C01230D0F140E077
:1019E000212F30E02150304054EC17C05093740048
:1019F0008091740087FFFCCF80917100887F8035D3
:101A000029F084E98093740086E03BC080917300E4
:101A1000FE01E40FF11D80834F5F842F90E0821759
:101A2000930724F384E8809374008091740087FF07
:101A3000FCCF80917100887F883529F084E98093FC
:101A4000740087E01EC080917300C10FD11D2197E3
:101A500013C084E8809374008091740087FFFCCFEA
:101A600080917100887F883529F084E98093740023
:101A700088E007C080917300888384E980937400B4
:101A800080E0DF91CF911F910F9108950F931F93E5
:101A9000CF93DF938C01E091D101F091D20183814A
:101AA00081FF21C0C0E0D0E00DC0E091D101F091F4
:101AB000D20120853185BF01F9010995892B11F0EB
:101AC000CFEFDFEFF80181918F01882371F7E0916B
:101AD000D101F091D201208531858AE0BF01F90161
:101AE0000995892B11F0CFEFDFEFCE01DF91CF9178
:0A1AF0001F910F910895F894FFCFA5
:101AFA0053746172742D2D2D2D2D210000000003C9
:101B0A000000000070007E000000000023000000BA
:101B1A0000000000000000000000000000000000BB
:101B2A0000000000000000000000000000000000AB
:101B3A002300000000000000000000000000000078
:101B4A00000000000000000000000000000000008B
:021B5A00000089
:00000001FF
